{
  "contractName": "Archive",
  "abi": [
    {
      "inputs": [
        {
          "internalType": "string",
          "name": "",
          "type": "string"
        },
        {
          "internalType": "uint256",
          "name": "",
          "type": "uint256"
        }
      ],
      "name": "times",
      "outputs": [
        {
          "internalType": "uint256",
          "name": "",
          "type": "uint256"
        }
      ],
      "stateMutability": "view",
      "type": "function",
      "constant": true
    },
    {
      "inputs": [
        {
          "internalType": "string",
          "name": "_url",
          "type": "string"
        },
        {
          "internalType": "string",
          "name": "_content",
          "type": "string"
        }
      ],
      "name": "pushArchive",
      "outputs": [],
      "stateMutability": "nonpayable",
      "type": "function"
    },
    {
      "inputs": [
        {
          "internalType": "string",
          "name": "_url",
          "type": "string"
        },
        {
          "internalType": "uint256",
          "name": "timestamp",
          "type": "uint256"
        }
      ],
      "name": "getArchive",
      "outputs": [
        {
          "internalType": "string",
          "name": "",
          "type": "string"
        }
      ],
      "stateMutability": "view",
      "type": "function",
      "constant": true
    }
  ],
  "bytecode": "0x608060405234801561001057600080fd5b5061075c806100206000396000f3fe608060405234801561001057600080fd5b50600436106100415760003560e01c80630a6ba75a14610046578063952eeb6214610184578063b93977b41461025d575b600080fd5b6101096004803603604081101561005c57600080fd5b810190808035906020019064010000000081111561007957600080fd5b82018360208201111561008b57600080fd5b803590602001918460018302840111640100000000831117156100ad57600080fd5b91908080601f016020809104026020016040519081016040528093929190818152602001838380828437600081840152601f19601f820116905080830192505050505050509192919290803590602001909291905050506103af565b6040518080602001828103825283818151815260200191508051906020019080838360005b8381101561014957808201518184015260208101905061012e565b50505050905090810190601f1680156101765780820380516001836020036101000a031916815260200191505b509250505060405180910390f35b6102476004803603604081101561019a57600080fd5b81019080803590602001906401000000008111156101b757600080fd5b8201836020820111156101c957600080fd5b803590602001918460018302840111640100000000831117156101eb57600080fd5b91908080601f016020809104026020016040519081016040528093929190818152602001838380828437600081840152601f19601f820116905080830192505050505050509192919290803590602001909291905050506104f7565b6040518082815260200191505060405180910390f35b6103ad6004803603604081101561027357600080fd5b810190808035906020019064010000000081111561029057600080fd5b8201836020820111156102a257600080fd5b803590602001918460018302840111640100000000831117156102c457600080fd5b91908080601f016020809104026020016040519081016040528093929190818152602001838380828437600081840152601f19601f8201169050808301925050505050505091929192908035906020019064010000000081111561032757600080fd5b82018360208201111561033957600080fd5b8035906020019184600183028401116401000000008311171561035b57600080fd5b91908080601f016020809104026020016040519081016040528093929190818152602001838380828437600081840152601f19601f82011690508083019250505050505050919291929050505061053b565b005b606060008083856040516020018083815260200180602001828103825283818151815260200191508051906020019080838360005b838110156103ff5780820151818401526020810190506103e4565b50505050905090810190601f16801561042c5780820380516001836020036101000a031916815260200191505b5093505050506040516020818303038152906040528051906020012081526020019081526020016000208054600181600116156101000203166002900480601f0160208091040260200160405190810160405280929190818152602001828054600181600116156101000203166002900480156104ea5780601f106104bf576101008083540402835291602001916104ea565b820191906000526020600020905b8154815290600101906020018083116104cd57829003601f168201915b5050505050905092915050565b600182805160208101820180518482526020830160208501208183528095505050505050818154811061052657fe5b90600052602060002001600091509150505481565b8060008042856040516020018083815260200180602001828103825283818151815260200191508051906020019080838360005b8381101561058a57808201518184015260208101905061056f565b50505050905090810190601f1680156105b75780820380516001836020036101000a031916815260200191505b50935050505060405160208183030381529060405280519060200120815260200190815260200160002090805190602001906105f4929190610689565b506001826040518082805190602001908083835b6020831061062b5780518252602082019150602081019050602083039250610608565b6001836020036101000a03801982511681845116808217855250505050505090500191505090815260200160405180910390204290806001815401808255809150506001900390600052602060002001600090919091909150555050565b828054600181600116156101000203166002900490600052602060002090601f016020900481019282601f106106ca57805160ff19168380011785556106f8565b828001600101855582156106f8579182015b828111156106f75782518255916020019190600101906106dc565b5b5090506107059190610709565b5090565b5b8082111561072257600081600090555060010161070a565b509056fea2646970667358221220fe9aa6cbd2e7822c44ac89f8d516149c8d106e00fd6e256b304d6108df854cbf64736f6c634300060c0033",
  "immutableReferences": {},
  "source": "// SPDX-License-Identifier: MIT\npragma solidity >=0.5.0 <0.7.0;\n\ncontract Archive {\n    // TimedURL => Content\n    mapping (bytes32 => string) private archives;\n\n    // URL => List of TIME\n    mapping (string => uint256[]) public times;\n\n    function pushArchive(string memory _url, string memory _content) \n    public {\n        archives[keccak256(abi.encode(block.timestamp, _url))] = _content;\n\n        times[_url].push(block.timestamp);\n    }\n\n    function getArchive(string memory _url, uint256 timestamp)\n    public view returns (string memory) {\n        return archives[keccak256(abi.encode(timestamp, _url))];\n    }\n}\n",
  "sourcePath": "/home/zacknuv/projects/assignments/2025_2/BLK0/blockchain/contracts/Archive.sol",
  "compiler": {
    "name": "solc",
    "version": "0.6.12+commit.27d51765.Emscripten.clang"
  },
  "schemaVersion": "3.4.16",
  "updatedAt": "2025-10-07T10:02:03.063Z",
  "networkType": "ethereum",
  "devdoc": {
    "kind": "dev",
    "methods": {},
    "version": 1
  },
  "userdoc": {
    "kind": "user",
    "methods": {},
    "version": 1
  }
}